{
  "contractName": "CreditExchange",
  "abi": [
    {
      "constant": false,
      "inputs": [
        {
          "name": "idCardNumber",
          "type": "string"
        },
        {
          "name": "kind",
          "type": "string"
        },
        {
          "name": "isSuccessful",
          "type": "bool"
        },
        {
          "name": "amount",
          "type": "uint256"
        }
      ],
      "name": "addCase",
      "outputs": [],
      "payable": false,
      "stateMutability": "nonpayable",
      "type": "function"
    },
    {
      "constant": true,
      "inputs": [
        {
          "name": "idCardNumber",
          "type": "string"
        },
        {
          "name": "kind",
          "type": "string"
        }
      ],
      "name": "getPerson",
      "outputs": [
        {
          "name": "",
          "type": "uint256"
        },
        {
          "name": "",
          "type": "uint256"
        },
        {
          "name": "",
          "type": "bool[]"
        },
        {
          "name": "",
          "type": "uint256[]"
        }
      ],
      "payable": false,
      "stateMutability": "view",
      "type": "function"
    }
  ],
  "bytecode": "0x6060604052341561000f57600080fd5b610a518061001e6000396000f30060606040526004361061004c576000357c0100000000000000000000000000000000000000000000000000000000900463ffffffff168063a007c0bd14610051578063edaab5b51461019c575b600080fd5b341561005c57600080fd5b6100ef600480803590602001908201803590602001908080601f0160208091040260200160405190810160405280939291908181526020018383808284378201915050505050509190803590602001908201803590602001908080601f01602080910402602001604051908101604052809392919081815260200183838082843782019150505050505091905050610250565b604051808581526020018481526020018060200180602001838103835285818151815260200191508051906020019060200280838360005b83811015610142578082015181840152602081019050610127565b50505050905001838103825284818151815260200191508051906020019060200280838360005b83811015610184578082015181840152602081019050610169565b50505050905001965050505050505060405180910390f35b34156101a757600080fd5b61024e600480803590602001908201803590602001908080601f0160208091040260200160405190810160405280939291908181526020018383808284378201915050505050509190803590602001908201803590602001908080601f0160208091040260200160405190810160405280939291908181526020018383808284378201915050505050509190803515159060200190919080359060200190919050506106ab565b005b60008061025b6109fd565b610263610a11565b600061026d6109fd565b610275610a11565b60008060405180807f636865636b50726f766964657273000000000000000000000000000000000000815250600e0190506040518091039020600019168a6040518082805190602001908083835b6020831015156102e857805182526020820191506020810190506020830392506102c3565b6001836020036101000a038019825116818451168082178552505050505050905001915050604051809103902060001916141561048a5760008b6040518082805190602001908083835b6020831015156103575780518252602082019150602081019050602083039250610332565b6001836020036101000a03801982511681845116808217855250505050505090500191505090815260200160405180910390209450846000015460405180591061039e5750595b9080825280602002602001820160405250935084600001546040518059106103c35750595b90808252806020026020018201604052509250600091505b84600001548210156104715784600201600083815260200190815260200160002060000160009054906101000a900460ff16848381518110151561041b57fe5b906020019060200201901515908115158152505084600201600083815260200190815260200160002060010154838381518110151561045657fe5b906020019060200201818152505081806001019250506103db565b846000015485600101548585985098509850985061069d565b60405180807f6d6f6e657950726f766964657273000000000000000000000000000000000000815250600e0190506040518091039020600019168a6040518082805190602001908083835b6020831015156104fa57805182526020820191506020810190506020830392506104d5565b6001836020036101000a038019825116818451168082178552505050505050905001915050604051809103902060001916141561069c5760018b6040518082805190602001908083835b6020831015156105695780518252602082019150602081019050602083039250610544565b6001836020036101000a0380198251168184511680821785525050505050509050019150509081526020016040518091039020945084600001546040518059106105b05750595b9080825280602002602001820160405250935084600001546040518059106105d55750595b90808252806020026020018201604052509250600090505b84600001548110156106835784600201600082815260200190815260200160002060000160009054906101000a900460ff16848281518110151561062d57fe5b906020019060200201901515908115158152505084600201600082815260200190815260200160002060010154838281518110151561066857fe5b906020019060200201818152505080806001019150506105ed565b846000015485600101548585985098509850985061069d565b5b505050505092959194509250565b600060405180807f636865636b50726f766964657273000000000000000000000000000000000000815250600e019050604051809103902060001916846040518082805190602001908083835b60208310151561071d57805182526020820191506020810190506020830392506106f8565b6001836020036101000a0380198251168184511680821785525050505050509050019150506040518091039020600019161415610853576000856040518082805190602001908083835b60208310151561078c5780518252602082019150602081019050602083039250610767565b6001836020036101000a038019825116818451168082178552505050505050905001915050908152602001604051809103902090506001151583151514156107e35780600101600081548092919060010191905055505b604080519081016040528084151581526020018381525081600201600083600001600081548092919060010191905055815260200190815260200160002060008201518160000160006101000a81548160ff021916908315150217905550602082015181600101559050506109f6565b60405180807f6d6f6e657950726f766964657273000000000000000000000000000000000000815250600e019050604051809103902060001916846040518082805190602001908083835b6020831015156108c3578051825260208201915060208101905060208303925061089e565b6001836020036101000a03801982511681845116808217855250505050505090500191505060405180910390206000191614156109f5576001856040518082805190602001908083835b602083101515610932578051825260208201915060208101905060208303925061090d565b6001836020036101000a038019825116818451168082178552505050505050905001915050908152602001604051809103902090506001151583151514156109895780600101600081548092919060010191905055505b604080519081016040528084151581526020018381525081600201600083600001600081548092919060010191905055815260200190815260200160002060008201518160000160006101000a81548160ff021916908315150217905550602082015181600101559050505b5b5050505050565b602060405190810160405280600081525090565b6020604051908101604052806000815250905600a165627a7a723058208f083a472df6da6d5ce6d422183184ca6288c84fb784fc4cf78f6b81080d907f0029",
  "source": "pragma solidity ^0.4.16;\n\n/// @title credit exchange platform\ncontract CreditExchange {\n    struct Case {\n        bool isSuccessful;\n        uint amount;\n    }\n\n    struct Person {\n        uint numCases;\n        uint numSuccessfulCases;\n        mapping (uint => Case) cases;\n    }\n\n    mapping (string => Person) checkProviders;\n    mapping (string => Person) moneyProviders;\n\n    function addCase(string idCardNumber, string kind, bool isSuccessful, uint amount) public {\n        Person storage person;\n        \n        if (keccak256(kind) == keccak256(\"checkProviders\")) {\n            person = checkProviders[idCardNumber];\n            if (isSuccessful == true)\n                person.numSuccessfulCases++;\n            person.cases[person.numCases++] = Case({isSuccessful: isSuccessful, amount: amount});\n        } else if (keccak256(kind) == keccak256(\"moneyProviders\")) {\n            person = moneyProviders[idCardNumber];\n            if (isSuccessful == true)\n                person.numSuccessfulCases++;\n            person.cases[person.numCases++] = Case({isSuccessful: isSuccessful, amount: amount});\n        } \n    }\n\n    function getPerson(string idCardNumber, string kind) public view returns (uint, uint, bool[], uint[]) {\n        Person storage person;\n        bool[] memory isSuccessful;\n        uint[] memory amount;\n        \n        if (keccak256(kind) == keccak256(\"checkProviders\")) {\n            person = checkProviders[idCardNumber];\n            isSuccessful = new bool[](person.numCases);\n            amount = new uint[](person.numCases);\n            for (uint i = 0; i < person.numCases; i++) {\n                isSuccessful[i] = person.cases[i].isSuccessful;\n                amount[i] = person.cases[i].amount;\n            }\n            return (person.numCases, person.numSuccessfulCases, isSuccessful, amount);\n        } else if (keccak256(kind) == keccak256(\"moneyProviders\")) {\n            person = moneyProviders[idCardNumber];\n            isSuccessful = new bool[](person.numCases);\n            amount = new uint[](person.numCases);\n            for (uint j = 0; j < person.numCases; j++) {\n                isSuccessful[j] = person.cases[j].isSuccessful;\n                amount[j] = person.cases[j].amount;\n            }\n            return (person.numCases, person.numSuccessfulCases, isSuccessful, amount);\n        } \n    }\n}",
  "sourcePath": "/Users/cheinpaopao/Desktop/react-dapp/contracts/CreditExchange.sol",
  "compiler": {
    "name": "solc",
    "version": "0.4.19+commit.c4cbbb05.Emscripten.clang"
  },
  "schemaVersion": "1.0.1",
  "updatedAt": "2018-03-17T06:41:31.839Z"
}