{
  "contractName": "CreditExchange",
  "abi": [
    {
      "constant": false,
      "inputs": [
        {
          "name": "idCardNumber",
          "type": "string"
        },
        {
          "name": "kind",
          "type": "string"
        }
      ],
      "name": "newPerson",
      "outputs": [],
      "payable": false,
      "stateMutability": "nonpayable",
      "type": "function"
    },
    {
      "constant": false,
      "inputs": [
        {
          "name": "idCardNumber",
          "type": "string"
        },
        {
          "name": "kind",
          "type": "string"
        },
        {
          "name": "isSuccessful",
          "type": "bool"
        },
        {
          "name": "amount",
          "type": "uint256"
        }
      ],
      "name": "addCase",
      "outputs": [],
      "payable": false,
      "stateMutability": "nonpayable",
      "type": "function"
    },
    {
      "constant": true,
      "inputs": [
        {
          "name": "idCardNumber",
          "type": "string"
        },
        {
          "name": "kind",
          "type": "string"
        }
      ],
      "name": "getPerson",
      "outputs": [
        {
          "name": "",
          "type": "uint256"
        },
        {
          "name": "",
          "type": "uint256"
        },
        {
          "name": "",
          "type": "bool[]"
        },
        {
          "name": "",
          "type": "uint256[]"
        }
      ],
      "payable": false,
      "stateMutability": "view",
      "type": "function"
    }
  ],
  "bytecode": "0x6060604052341561000f57600080fd5b610e808061001e6000396000f300606060405260043610610057576000357c0100000000000000000000000000000000000000000000000000000000900463ffffffff168063a007c0bd1461005c578063a820255b146101a7578063edaab5b514610247575b600080fd5b341561006757600080fd5b6100fa600480803590602001908201803590602001908080601f0160208091040260200160405190810160405280939291908181526020018383808284378201915050505050509190803590602001908201803590602001908080601f016020809104026020016040519081016040528093929190818152602001838380828437820191505050505050919050506102fb565b604051808581526020018481526020018060200180602001838103835285818151815260200191508051906020019060200280838360005b8381101561014d578082015181840152602081019050610132565b50505050905001838103825284818151815260200191508051906020019060200280838360005b8381101561018f578082015181840152602081019050610174565b50505050905001965050505050505060405180910390f35b34156101b257600080fd5b610245600480803590602001908201803590602001908080601f0160208091040260200160405190810160405280939291908181526020018383808284378201915050505050509190803590602001908201803590602001908080601f01602080910402602001604051908101604052809392919081815260200183838082843782019150505050505091905050610756565b005b341561025257600080fd5b6102f9600480803590602001908201803590602001908080601f0160208091040260200160405190810160405280939291908181526020018383808284378201915050505050509190803590602001908201803590602001908080601f016020809104026020016040519081016040528093929190818152602001838380828437820191505050505050919080351515906020019091908035906020019091905050610ada565b005b600080610306610e2c565b61030e610e40565b6000610318610e2c565b610320610e40565b60008060405180807f636865636b50726f766964657273000000000000000000000000000000000000815250600e0190506040518091039020600019168a6040518082805190602001908083835b602083101515610393578051825260208201915060208101905060208303925061036e565b6001836020036101000a03801982511681845116808217855250505050505090500191505060405180910390206000191614156105355760008b6040518082805190602001908083835b60208310151561040257805182526020820191506020810190506020830392506103dd565b6001836020036101000a0380198251168184511680821785525050505050509050019150509081526020016040518091039020945084600001546040518059106104495750595b90808252806020026020018201604052509350846000015460405180591061046e5750595b90808252806020026020018201604052509250600091505b846000015482101561051c5784600201600083815260200190815260200160002060000160009054906101000a900460ff1684838151811015156104c657fe5b906020019060200201901515908115158152505084600201600083815260200190815260200160002060010154838381518110151561050157fe5b90602001906020020181815250508180600101925050610486565b8460000154856001015485859850985098509850610748565b60405180807f6d6f6e657950726f766964657273000000000000000000000000000000000000815250600e0190506040518091039020600019168a6040518082805190602001908083835b6020831015156105a55780518252602082019150602081019050602083039250610580565b6001836020036101000a03801982511681845116808217855250505050505090500191505060405180910390206000191614156107475760018b6040518082805190602001908083835b60208310151561061457805182526020820191506020810190506020830392506105ef565b6001836020036101000a03801982511681845116808217855250505050505090500191505090815260200160405180910390209450846000015460405180591061065b5750595b9080825280602002602001820160405250935084600001546040518059106106805750595b90808252806020026020018201604052509250600090505b846000015481101561072e5784600201600082815260200190815260200160002060000160009054906101000a900460ff1684828151811015156106d857fe5b906020019060200201901515908115158152505084600201600082815260200190815260200160002060010154838281518110151561071357fe5b90602001906020020181815250508080600101915050610698565b8460000154856001015485859850985098509850610748565b5b505050505092959194509250565b60405180807f636865636b50726f766964657273000000000000000000000000000000000000815250600e019050604051809103902060001916816040518082805190602001908083835b6020831015156107c657805182526020820191506020810190506020830392506107a1565b6001836020036101000a038019825116818451168082178552505050505050905001915050604051809103902060001916141561091757600080836040518082805190602001908083835b6020831015156108365780518252602082019150602081019050602083039250610811565b6001836020036101000a03801982511681845116808217855250505050505090500191505090815260200160405180910390206000015414151561087957600080fd5b60408051908101604052806000815260200160008152506000836040518082805190602001908083835b6020831015156108c857805182526020820191506020810190506020830392506108a3565b6001836020036101000a03801982511681845116808217855250505050505090500191505090815260200160405180910390206000820151816000015560208201518160010155905050610ad6565b60405180807f6d6f6e657950726f766964657273000000000000000000000000000000000000815250600e019050604051809103902060001916816040518082805190602001908083835b6020831015156109875780518252602082019150602081019050602083039250610962565b6001836020036101000a0380198251168184511680821785525050505050509050019150506040518091039020600019161415610ad55760006001836040518082805190602001908083835b6020831015156109f857805182526020820191506020810190506020830392506109d3565b6001836020036101000a038019825116818451168082178552505050505050905001915050908152602001604051809103902060000154141515610a3b57600080fd5b60408051908101604052806000815260200160008152506001836040518082805190602001908083835b602083101515610a8a5780518252602082019150602081019050602083039250610a65565b6001836020036101000a038019825116818451168082178552505050505050905001915050908152602001604051809103902060008201518160000155602082015181600101559050505b5b5050565b600060405180807f636865636b50726f766964657273000000000000000000000000000000000000815250600e019050604051809103902060001916846040518082805190602001908083835b602083101515610b4c5780518252602082019150602081019050602083039250610b27565b6001836020036101000a0380198251168184511680821785525050505050509050019150506040518091039020600019161415610c82576000856040518082805190602001908083835b602083101515610bbb5780518252602082019150602081019050602083039250610b96565b6001836020036101000a03801982511681845116808217855250505050505090500191505090815260200160405180910390209050600115158315151415610c125780600101600081548092919060010191905055505b604080519081016040528084151581526020018381525081600201600083600001600081548092919060010191905055815260200190815260200160002060008201518160000160006101000a81548160ff02191690831515021790555060208201518160010155905050610e25565b60405180807f6d6f6e657950726f766964657273000000000000000000000000000000000000815250600e019050604051809103902060001916846040518082805190602001908083835b602083101515610cf25780518252602082019150602081019050602083039250610ccd565b6001836020036101000a0380198251168184511680821785525050505050509050019150506040518091039020600019161415610e24576001856040518082805190602001908083835b602083101515610d615780518252602082019150602081019050602083039250610d3c565b6001836020036101000a03801982511681845116808217855250505050505090500191505090815260200160405180910390209050600115158315151415610db85780600101600081548092919060010191905055505b604080519081016040528084151581526020018381525081600201600083600001600081548092919060010191905055815260200190815260200160002060008201518160000160006101000a81548160ff021916908315150217905550602082015181600101559050505b5b5050505050565b602060405190810160405280600081525090565b6020604051908101604052806000815250905600a165627a7a723058207ca0bc65eabaf0fdac150a934088f26d4db4a090f2e665f916f58c2c2b01b6e60029",
  "source": "pragma solidity ^0.4.16;\n\n/// @title credit exchange platform\ncontract CreditExchange {\n    struct Case {\n        bool isSuccessful;\n        uint amount;\n    }\n\n    struct Person {\n        uint numCases;\n        uint numSuccessfulCases;\n        mapping (uint => Case) cases;\n    }\n\n    mapping (string => Person) checkProviders;\n    mapping (string => Person) moneyProviders;\n\n    function newPerson(string idCardNumber, string kind) public {\n        if (keccak256(kind) == keccak256(\"checkProviders\")) {\n            require(checkProviders[idCardNumber].numCases == 0);\n            checkProviders[idCardNumber] = Person(0, 0);\n        } else if (keccak256(kind) == keccak256(\"moneyProviders\")) {\n            require(moneyProviders[idCardNumber].numCases == 0);\n            moneyProviders[idCardNumber] = Person(0, 0);\n        } \n    }\n\n    function addCase(string idCardNumber, string kind, bool isSuccessful, uint amount) public {\n        Person storage person;\n        \n        if (keccak256(kind) == keccak256(\"checkProviders\")) {\n            person = checkProviders[idCardNumber];\n            if (isSuccessful == true)\n                person.numSuccessfulCases++;\n            person.cases[person.numCases++] = Case({isSuccessful: isSuccessful, amount: amount});\n        } else if (keccak256(kind) == keccak256(\"moneyProviders\")) {\n            person = moneyProviders[idCardNumber];\n            if (isSuccessful == true)\n                person.numSuccessfulCases++;\n            person.cases[person.numCases++] = Case({isSuccessful: isSuccessful, amount: amount});\n        } \n    }\n\n    function getPerson(string idCardNumber, string kind) public view returns (uint, uint, bool[], uint[]) {\n        Person storage person;\n        bool[] memory isSuccessful;\n        uint[] memory amount;\n        \n        if (keccak256(kind) == keccak256(\"checkProviders\")) {\n            person = checkProviders[idCardNumber];\n            isSuccessful = new bool[](person.numCases);\n            amount = new uint[](person.numCases);\n            for (uint i = 0; i < person.numCases; i++) {\n                isSuccessful[i] = person.cases[i].isSuccessful;\n                amount[i] = person.cases[i].amount;\n            }\n            return (person.numCases, person.numSuccessfulCases, isSuccessful, amount);\n        } else if (keccak256(kind) == keccak256(\"moneyProviders\")) {\n            person = moneyProviders[idCardNumber];\n            isSuccessful = new bool[](person.numCases);\n            amount = new uint[](person.numCases);\n            for (uint j = 0; j < person.numCases; j++) {\n                isSuccessful[j] = person.cases[j].isSuccessful;\n                amount[j] = person.cases[j].amount;\n            }\n            return (person.numCases, person.numSuccessfulCases, isSuccessful, amount);\n        } \n    }\n}",
  "sourcePath": "/Users/cheinpaopao/Desktop/react-dapp/contracts/CreditExchange.sol",
  "compiler": {
    "name": "solc",
    "version": "0.4.19+commit.c4cbbb05.Emscripten.clang"
  },
  "schemaVersion": "1.0.1",
  "updatedAt": "2018-03-07T17:18:16.430Z"
}